{
  "contractName": "Heimdall",
  "abi": [
    {
      "constant": false,
      "inputs": [],
      "name": "terminate",
      "outputs": [],
      "payable": false,
      "stateMutability": "nonpayable",
      "type": "function"
    },
    {
      "constant": true,
      "inputs": [],
      "name": "heimdallStorage",
      "outputs": [
        {
          "name": "",
          "type": "address"
        }
      ],
      "payable": false,
      "stateMutability": "view",
      "type": "function"
    },
    {
      "constant": false,
      "inputs": [
        {
          "name": "_newOwner",
          "type": "address"
        }
      ],
      "name": "newOwner",
      "outputs": [],
      "payable": false,
      "stateMutability": "nonpayable",
      "type": "function"
    },
    {
      "inputs": [
        {
          "name": "_heimdallStorage",
          "type": "address"
        }
      ],
      "payable": true,
      "stateMutability": "payable",
      "type": "constructor"
    },
    {
      "anonymous": false,
      "inputs": [
        {
          "indexed": false,
          "name": "owneraddress",
          "type": "address"
        },
        {
          "indexed": false,
          "name": "depositer",
          "type": "address"
        },
        {
          "indexed": false,
          "name": "depositValue",
          "type": "uint256"
        },
        {
          "indexed": false,
          "name": "endingValue",
          "type": "uint256"
        },
        {
          "indexed": false,
          "name": "depositFeePaid",
          "type": "uint256"
        },
        {
          "indexed": false,
          "name": "toplAdrs",
          "type": "string"
        }
      ],
      "name": "deposit_event",
      "type": "event"
    },
    {
      "anonymous": false,
      "inputs": [
        {
          "indexed": false,
          "name": "withdrawer",
          "type": "address"
        },
        {
          "indexed": false,
          "name": "withdrawalAmount",
          "type": "uint256"
        },
        {
          "indexed": false,
          "name": "endingValue",
          "type": "uint256"
        },
        {
          "indexed": false,
          "name": "withdrawalFee",
          "type": "uint256"
        }
      ],
      "name": "startedWithdrawal_event",
      "type": "event"
    },
    {
      "anonymous": false,
      "inputs": [
        {
          "indexed": false,
          "name": "owneraddress",
          "type": "address"
        },
        {
          "indexed": false,
          "name": "withdrawer",
          "type": "address"
        },
        {
          "indexed": false,
          "name": "withdrawalAmount",
          "type": "uint256"
        },
        {
          "indexed": false,
          "name": "endingValue",
          "type": "uint256"
        },
        {
          "indexed": false,
          "name": "withdrawalFeePaid",
          "type": "uint256"
        }
      ],
      "name": "approvedWithdrawal_event",
      "type": "event"
    },
    {
      "anonymous": false,
      "inputs": [
        {
          "indexed": false,
          "name": "owneraddress",
          "type": "address"
        },
        {
          "indexed": false,
          "name": "withdrawer",
          "type": "address"
        },
        {
          "indexed": false,
          "name": "withdrawalAmount",
          "type": "uint256"
        }
      ],
      "name": "deniedWithdrawal_event",
      "type": "event"
    },
    {
      "anonymous": false,
      "inputs": [
        {
          "indexed": false,
          "name": "owneraddress",
          "type": "address"
        },
        {
          "indexed": false,
          "name": "oldFee",
          "type": "uint256"
        },
        {
          "indexed": false,
          "name": "newFee",
          "type": "uint256"
        }
      ],
      "name": "depositFeeSet_event",
      "type": "event"
    },
    {
      "anonymous": false,
      "inputs": [
        {
          "indexed": false,
          "name": "owneraddress",
          "type": "address"
        },
        {
          "indexed": false,
          "name": "oldFee",
          "type": "uint256"
        },
        {
          "indexed": false,
          "name": "newFee",
          "type": "uint256"
        }
      ],
      "name": "withdrawalFeeSet_event",
      "type": "event"
    },
    {
      "anonymous": false,
      "inputs": [
        {
          "indexed": false,
          "name": "owneraddress",
          "type": "address"
        },
        {
          "indexed": false,
          "name": "oldAmount",
          "type": "uint256"
        },
        {
          "indexed": false,
          "name": "newAmount",
          "type": "uint256"
        }
      ],
      "name": "minWithdrawalAmountSet_event",
      "type": "event"
    },
    {
      "anonymous": false,
      "inputs": [
        {
          "indexed": false,
          "name": "ethAdrs",
          "type": "address"
        },
        {
          "indexed": false,
          "name": "balance",
          "type": "uint256"
        },
        {
          "indexed": false,
          "name": "oldToplAdrs",
          "type": "string"
        },
        {
          "indexed": false,
          "name": "newToplAdrs",
          "type": "string"
        }
      ],
      "name": "changedToplAddress_event",
      "type": "event"
    },
    {
      "anonymous": false,
      "inputs": [
        {
          "indexed": false,
          "name": "toplAdrs",
          "type": "string"
        },
        {
          "indexed": false,
          "name": "balance",
          "type": "uint256"
        },
        {
          "indexed": false,
          "name": "oldEthAdrs",
          "type": "address"
        },
        {
          "indexed": false,
          "name": "newEthAdrs",
          "type": "address"
        }
      ],
      "name": "changedEthAddress_event",
      "type": "event"
    },
    {
      "constant": false,
      "inputs": [
        {
          "name": "_toplAdrs",
          "type": "string"
        }
      ],
      "name": "ownerSetup",
      "outputs": [],
      "payable": false,
      "stateMutability": "nonpayable",
      "type": "function"
    },
    {
      "constant": false,
      "inputs": [
        {
          "name": "_toplAdrs",
          "type": "string"
        }
      ],
      "name": "deposit",
      "outputs": [],
      "payable": true,
      "stateMutability": "payable",
      "type": "function"
    },
    {
      "constant": false,
      "inputs": [
        {
          "name": "_amount",
          "type": "uint256"
        }
      ],
      "name": "startWithdrawal",
      "outputs": [],
      "payable": false,
      "stateMutability": "nonpayable",
      "type": "function"
    },
    {
      "constant": false,
      "inputs": [
        {
          "name": "_ethAdrs",
          "type": "address"
        },
        {
          "name": "_amount",
          "type": "uint256"
        }
      ],
      "name": "approveWithdrawal",
      "outputs": [],
      "payable": false,
      "stateMutability": "nonpayable",
      "type": "function"
    },
    {
      "constant": false,
      "inputs": [
        {
          "name": "_ethAdrs",
          "type": "address"
        },
        {
          "name": "_amount",
          "type": "uint256"
        }
      ],
      "name": "denyWithdrawal",
      "outputs": [],
      "payable": false,
      "stateMutability": "nonpayable",
      "type": "function"
    },
    {
      "constant": false,
      "inputs": [
        {
          "name": "_toplAdrs",
          "type": "string"
        }
      ],
      "name": "changeToplAddress",
      "outputs": [],
      "payable": false,
      "stateMutability": "nonpayable",
      "type": "function"
    },
    {
      "constant": false,
      "inputs": [
        {
          "name": "_newEthAdrs",
          "type": "address"
        }
      ],
      "name": "changeEthAddress",
      "outputs": [],
      "payable": false,
      "stateMutability": "nonpayable",
      "type": "function"
    },
    {
      "constant": false,
      "inputs": [
        {
          "name": "_fee",
          "type": "uint256"
        }
      ],
      "name": "setDepositFee",
      "outputs": [],
      "payable": false,
      "stateMutability": "nonpayable",
      "type": "function"
    },
    {
      "constant": false,
      "inputs": [
        {
          "name": "_fee",
          "type": "uint256"
        }
      ],
      "name": "setWithdrawalFee",
      "outputs": [],
      "payable": false,
      "stateMutability": "nonpayable",
      "type": "function"
    },
    {
      "constant": false,
      "inputs": [
        {
          "name": "_amount",
          "type": "uint256"
        }
      ],
      "name": "setMinWithdrawalAmount",
      "outputs": [],
      "payable": false,
      "stateMutability": "nonpayable",
      "type": "function"
    }
  ],
  "bytecode": "0x608060405260018060146101000a81548160ff0219169083151502179055506040516020806129a683398101806040528101908080519060200190929190505050336000806101000a81548173ffffffffffffffffffffffffffffffffffffffff021916908373ffffffffffffffffffffffffffffffffffffffff16021790555080600160006101000a81548173ffffffffffffffffffffffffffffffffffffffff021916908373ffffffffffffffffffffffffffffffffffffffff160217905550506128d5806100d16000396000f3006080604052600436106100c5576000357c0100000000000000000000000000000000000000000000000000000000900463ffffffff1680630c08bf88146100ca5780632bea1756146100e1578063416f548314610138578063490ae2101461017b57806385952454146101a857806385b5b14d146101eb57806389c2acd814610218578063a26e118614610281578063ac1e5025146102dd578063bea898011461030a578063e69bb20d14610373578063ec6f316c146103a0578063f4970e71146103ed575b600080fd5b3480156100d657600080fd5b506100df61043a565b005b3480156100ed57600080fd5b506100f66104cf565b604051808273ffffffffffffffffffffffffffffffffffffffff1673ffffffffffffffffffffffffffffffffffffffff16815260200191505060405180910390f35b34801561014457600080fd5b50610179600480360381019080803573ffffffffffffffffffffffffffffffffffffffff1690602001909291905050506104f5565b005b34801561018757600080fd5b506101a6600480360381019080803590602001909291905050506107bc565b005b3480156101b457600080fd5b506101e9600480360381019080803573ffffffffffffffffffffffffffffffffffffffff16906020019092919050505061091e565b005b3480156101f757600080fd5b50610216600480360381019080803590602001909291905050506109bc565b005b34801561022457600080fd5b5061027f600480360381019080803590602001908201803590602001908080601f0160208091040260200160405190810160405280939291908181526020018383808284378201915050505050509192919290505050610b1e565b005b6102db600480360381019080803590602001908201803590602001908080601f0160208091040260200160405190810160405280939291908181526020018383808284378201915050505050509192919290505050610c1e565b005b3480156102e957600080fd5b506103086004803603810190808035906020019092919050505061111a565b005b34801561031657600080fd5b50610371600480360381019080803590602001908201803590602001908080601f016020809104026020016040519081016040528093929190818152602001838380828437820191505050505050919291929050505061127c565b005b34801561037f57600080fd5b5061039e600480360381019080803590602001909291905050506114be565b005b3480156103ac57600080fd5b506103eb600480360381019080803573ffffffffffffffffffffffffffffffffffffffff16906020019092919080359060200190929190505050611759565b005b3480156103f957600080fd5b50610438600480360381019080803573ffffffffffffffffffffffffffffffffffffffff1690602001909291908035906020019092919050505061198b565b005b6000809054906101000a900473ffffffffffffffffffffffffffffffffffffffff1673ffffffffffffffffffffffffffffffffffffffff163373ffffffffffffffffffffffffffffffffffffffff1614151561049557600080fd5b6000809054906101000a900473ffffffffffffffffffffffffffffffffffffffff1673ffffffffffffffffffffffffffffffffffffffff16ff5b600160009054906101000a900473ffffffffffffffffffffffffffffffffffffffff1681565b600060606000610503612841565b61050b612841565b61055633600160009054906101000a900473ffffffffffffffffffffffffffffffffffffffff1673ffffffffffffffffffffffffffffffffffffffff16611ec890919063ffffffff16565b9450945094506060604051908101604052808673ffffffffffffffffffffffffffffffffffffffff1681526020018581526020018481525091506060604051908101604052808773ffffffffffffffffffffffffffffffffffffffff16815260200185815260200184815250905061064d82600001516040805190810160405280600f81526020017f70726576696f75736c79207573656400000000000000000000000000000000008152506000600160009054906101000a900473ffffffffffffffffffffffffffffffffffffffff1673ffffffffffffffffffffffffffffffffffffffff16612021909392919063ffffffff16565b6106a8816000015182602001518360400151600160009054906101000a900473ffffffffffffffffffffffffffffffffffffffff1673ffffffffffffffffffffffffffffffffffffffff16612021909392919063ffffffff16565b7f7cdbc297391d900998c5a8c668e1b24a9833766ea17ad8f1c4a5187b27afb7888484878960405180806020018581526020018473ffffffffffffffffffffffffffffffffffffffff1673ffffffffffffffffffffffffffffffffffffffff1681526020018373ffffffffffffffffffffffffffffffffffffffff1673ffffffffffffffffffffffffffffffffffffffff168152602001828103825286818151815260200191508051906020019080838360005b8381101561077757808201518184015260208101905061075c565b50505050905090810190601f1680156107a45780820380516001836020036101000a031916815260200191505b509550505050505060405180910390a1505050505050565b60008060009054906101000a900473ffffffffffffffffffffffffffffffffffffffff1673ffffffffffffffffffffffffffffffffffffffff163373ffffffffffffffffffffffffffffffffffffffff1614151561081957600080fd5b61085a600160009054906101000a900473ffffffffffffffffffffffffffffffffffffffff1673ffffffffffffffffffffffffffffffffffffffff1661214f565b90506108a782600160009054906101000a900473ffffffffffffffffffffffffffffffffffffffff1673ffffffffffffffffffffffffffffffffffffffff166121f790919063ffffffff16565b7f76528eba4130f3c0a30f10667044f889668ed3949218a22e07f69b637c8e76e0338284604051808473ffffffffffffffffffffffffffffffffffffffff1673ffffffffffffffffffffffffffffffffffffffff168152602001838152602001828152602001935050505060405180910390a15050565b6000809054906101000a900473ffffffffffffffffffffffffffffffffffffffff1673ffffffffffffffffffffffffffffffffffffffff163373ffffffffffffffffffffffffffffffffffffffff1614151561097957600080fd5b806000806101000a81548173ffffffffffffffffffffffffffffffffffffffff021916908373ffffffffffffffffffffffffffffffffffffffff16021790555050565b60008060009054906101000a900473ffffffffffffffffffffffffffffffffffffffff1673ffffffffffffffffffffffffffffffffffffffff163373ffffffffffffffffffffffffffffffffffffffff16141515610a1957600080fd5b610a5a600160009054906101000a900473ffffffffffffffffffffffffffffffffffffffff1673ffffffffffffffffffffffffffffffffffffffff16612282565b9050610aa782600160009054906101000a900473ffffffffffffffffffffffffffffffffffffffff1673ffffffffffffffffffffffffffffffffffffffff1661232a90919063ffffffff16565b7f76528eba4130f3c0a30f10667044f889668ed3949218a22e07f69b637c8e76e0338284604051808473ffffffffffffffffffffffffffffffffffffffff1673ffffffffffffffffffffffffffffffffffffffff168152602001838152602001828152602001935050505060405180910390a15050565b6000809054906101000a900473ffffffffffffffffffffffffffffffffffffffff1673ffffffffffffffffffffffffffffffffffffffff163373ffffffffffffffffffffffffffffffffffffffff16141515610b7957600080fd5b600160149054906101000a900460ff1615610c1b57610bff6000809054906101000a900473ffffffffffffffffffffffffffffffffffffffff16826000600160009054906101000a900473ffffffffffffffffffffffffffffffffffffffff1673ffffffffffffffffffffffffffffffffffffffff16612021909392919063ffffffff16565b6000600160146101000a81548160ff0219169083151502179055505b50565b600060606000610c2c612841565b600060606000610c3a612841565b6000610c8733600160009054906101000a900473ffffffffffffffffffffffffffffffffffffffff1673ffffffffffffffffffffffffffffffffffffffff16611ec890919063ffffffff16565b9850985098506060604051908101604052808a73ffffffffffffffffffffffffffffffffffffffff168152602001898152602001888152509550610d2d6000809054906101000a900473ffffffffffffffffffffffffffffffffffffffff16600160009054906101000a900473ffffffffffffffffffffffffffffffffffffffff1673ffffffffffffffffffffffffffffffffffffffff16611ec890919063ffffffff16565b9450945094506060604051908101604052808673ffffffffffffffffffffffffffffffffffffffff168152602001858152602001848152509150610da8600160009054906101000a900473ffffffffffffffffffffffffffffffffffffffff1673ffffffffffffffffffffffffffffffffffffffff1661214f565b9050896040518082805190602001908083835b602083101515610de05780518252602082019150602081019050602083039250610dbb565b6001836020036101000a03801982511681845116808217855250505050505090500191505060405180910390206000191686602001516040518082805190602001908083835b602083101515610e4b5780518252602082019150602081019050602083039250610e26565b6001836020036101000a038019825116818451168082178552505050505050905001915050604051809103902060001916141515610e8d578986602001819052505b6000610eb882610eaa348a604001516123b590919063ffffffff16565b6123d190919063ffffffff16565b111515610ec157fe5b610ed88183604001516123b590919063ffffffff16565b826040018181525050610f0a81610efc3489604001516123b590919063ffffffff16565b6123d190919063ffffffff16565b866040018181525050610f6e826000015183602001518460400151600160009054906101000a900473ffffffffffffffffffffffffffffffffffffffff1673ffffffffffffffffffffffffffffffffffffffff16612021909392919063ffffffff16565b610fc9866000015187602001518860400151600160009054906101000a900473ffffffffffffffffffffffffffffffffffffffff1673ffffffffffffffffffffffffffffffffffffffff16612021909392919063ffffffff16565b7f60acd0014e3017eab85378ac1e39a6236f65eb0017b9b4cf77977c7fb22743aa6000809054906101000a900473ffffffffffffffffffffffffffffffffffffffff1633348960400151858b60200151604051808773ffffffffffffffffffffffffffffffffffffffff1673ffffffffffffffffffffffffffffffffffffffff1681526020018673ffffffffffffffffffffffffffffffffffffffff1673ffffffffffffffffffffffffffffffffffffffff16815260200185815260200184815260200183815260200180602001828103825283818151815260200191508051906020019080838360005b838110156110cf5780820151818401526020810190506110b4565b50505050905090810190601f1680156110fc5780820380516001836020036101000a031916815260200191505b5097505050505050505060405180910390a150505050505050505050565b60008060009054906101000a900473ffffffffffffffffffffffffffffffffffffffff1673ffffffffffffffffffffffffffffffffffffffff163373ffffffffffffffffffffffffffffffffffffffff1614151561117757600080fd5b6111b8600160009054906101000a900473ffffffffffffffffffffffffffffffffffffffff1673ffffffffffffffffffffffffffffffffffffffff166123ea565b905061120582600160009054906101000a900473ffffffffffffffffffffffffffffffffffffffff1673ffffffffffffffffffffffffffffffffffffffff1661249290919063ffffffff16565b7f76528eba4130f3c0a30f10667044f889668ed3949218a22e07f69b637c8e76e0338284604051808473ffffffffffffffffffffffffffffffffffffffff1673ffffffffffffffffffffffffffffffffffffffff168152602001838152602001828152602001935050505060405180910390a15050565b60006060600061128a612841565b6112d533600160009054906101000a900473ffffffffffffffffffffffffffffffffffffffff1673ffffffffffffffffffffffffffffffffffffffff16611ec890919063ffffffff16565b9350935093506060604051908101604052808573ffffffffffffffffffffffffffffffffffffffff1681526020018481526020018381525090506113668160000151868360400151600160009054906101000a900473ffffffffffffffffffffffffffffffffffffffff1673ffffffffffffffffffffffffffffffffffffffff16612021909392919063ffffffff16565b7ff9eabc018bae82ad920a3d3071135d5e0d861c1753e28f201fcb65a2feb11de581600001518260400151858460200151604051808573ffffffffffffffffffffffffffffffffffffffff1673ffffffffffffffffffffffffffffffffffffffff1681526020018481526020018060200180602001838103835285818151815260200191508051906020019080838360005b838110156114135780820151818401526020810190506113f8565b50505050905090810190601f1680156114405780820380516001836020036101000a031916815260200191505b50838103825284818151815260200191508051906020019080838360005b8381101561147957808201518184015260208101905061145e565b50505050905090810190601f1680156114a65780820380516001836020036101000a031916815260200191505b50965050505050505060405180910390a15050505050565b6000806114c9612879565b600080606060006114d8612841565b600061152533600160009054906101000a900473ffffffffffffffffffffffffffffffffffffffff1673ffffffffffffffffffffffffffffffffffffffff1661251d90919063ffffffff16565b9850985060408051908101604052808a73ffffffffffffffffffffffffffffffffffffffff168152602001898152509650611597600160009054906101000a900473ffffffffffffffffffffffffffffffffffffffff1673ffffffffffffffffffffffffffffffffffffffff166123ea565b95506115e433600160009054906101000a900473ffffffffffffffffffffffffffffffffffffffff1673ffffffffffffffffffffffffffffffffffffffff16611ec890919063ffffffff16565b9450945094506060604051908101604052808673ffffffffffffffffffffffffffffffffffffffff16815260200185815260200184815250915061163087600001518860200151612608565b151561163857fe5b6000876020015114151561164857fe5b8987602001818152505061167b8661166d8c85604001516123d190919063ffffffff16565b6123d190919063ffffffff16565b90506116d287600001518860200151600160009054906101000a900473ffffffffffffffffffffffffffffffffffffffff1673ffffffffffffffffffffffffffffffffffffffff166127819092919063ffffffff16565b7fb705b426c466f03e278a1240ca33d4276b0347a96bdcf7d6bd3a8d950dc636bb338b8389604051808573ffffffffffffffffffffffffffffffffffffffff1673ffffffffffffffffffffffffffffffffffffffff16815260200184815260200183815260200182815260200194505050505060405180910390a150505050505050505050565b600080611764612879565b6000809054906101000a900473ffffffffffffffffffffffffffffffffffffffff1673ffffffffffffffffffffffffffffffffffffffff163373ffffffffffffffffffffffffffffffffffffffff161415156117bf57600080fd5b61180a85600160009054906101000a900473ffffffffffffffffffffffffffffffffffffffff1673ffffffffffffffffffffffffffffffffffffffff1661251d90919063ffffffff16565b9250925060408051908101604052808473ffffffffffffffffffffffffffffffffffffffff1681526020018381525090508473ffffffffffffffffffffffffffffffffffffffff16816000015173ffffffffffffffffffffffffffffffffffffffff1614801561187d5750838160200151145b151561188557fe5b60008160200181815250506118e581600001518260200151600160009054906101000a900473ffffffffffffffffffffffffffffffffffffffff1673ffffffffffffffffffffffffffffffffffffffff166127819092919063ffffffff16565b7f50dd25e0ad7621ed6dcbc744d886c879b5706dc9edf0ea24cf37f9cbc517cd90338686604051808473ffffffffffffffffffffffffffffffffffffffff1673ffffffffffffffffffffffffffffffffffffffff1681526020018373ffffffffffffffffffffffffffffffffffffffff1673ffffffffffffffffffffffffffffffffffffffff168152602001828152602001935050505060405180910390a15050505050565b600080611996612879565b6000606060006119a4612841565b6000606060006119b2612841565b60008060009054906101000a900473ffffffffffffffffffffffffffffffffffffffff1673ffffffffffffffffffffffffffffffffffffffff163373ffffffffffffffffffffffffffffffffffffffff16141515611a0f57600080fd5b611a5a8e600160009054906101000a900473ffffffffffffffffffffffffffffffffffffffff1673ffffffffffffffffffffffffffffffffffffffff1661251d90919063ffffffff16565b9b509b5060408051908101604052808d73ffffffffffffffffffffffffffffffffffffffff1681526020018c8152509950611ad68e600160009054906101000a900473ffffffffffffffffffffffffffffffffffffffff1673ffffffffffffffffffffffffffffffffffffffff16611ec890919063ffffffff16565b9850985098506060604051908101604052808a73ffffffffffffffffffffffffffffffffffffffff168152602001898152602001888152509550611b7c6000809054906101000a900473ffffffffffffffffffffffffffffffffffffffff16600160009054906101000a900473ffffffffffffffffffffffffffffffffffffffff1673ffffffffffffffffffffffffffffffffffffffff16611ec890919063ffffffff16565b9450945094506060604051908101604052808673ffffffffffffffffffffffffffffffffffffffff168152602001858152602001848152509150611bf7600160009054906101000a900473ffffffffffffffffffffffffffffffffffffffff1673ffffffffffffffffffffffffffffffffffffffff166123ea565b90508d73ffffffffffffffffffffffffffffffffffffffff168a6000015173ffffffffffffffffffffffffffffffffffffffff16148015611c3b57508c8a60200151145b1515611c4357fe5b611c558a600001518b60200151612608565b5060008a6020018181525050611c788183604001516123b590919063ffffffff16565b826040018181525050611caa81611c9c8f89604001516123d190919063ffffffff16565b6123d190919063ffffffff16565b866040018181525050611d0e826000015183602001518460400151600160009054906101000a900473ffffffffffffffffffffffffffffffffffffffff1673ffffffffffffffffffffffffffffffffffffffff16612021909392919063ffffffff16565b611d69866000015187602001518860400151600160009054906101000a900473ffffffffffffffffffffffffffffffffffffffff1673ffffffffffffffffffffffffffffffffffffffff16612021909392919063ffffffff16565b611dbe8a600001518b60200151600160009054906101000a900473ffffffffffffffffffffffffffffffffffffffff1673ffffffffffffffffffffffffffffffffffffffff166127819092919063ffffffff16565b8d73ffffffffffffffffffffffffffffffffffffffff166108fc8e9081150290604051600060405180830381858888f19350505050158015611e04573d6000803e3d6000fd5b507f9d0b5bb7a47cb66bb87ecc8626b92f314c4b2f8321d5147d8645fbb6f94ea1e0338f8f896040015185604051808673ffffffffffffffffffffffffffffffffffffffff1673ffffffffffffffffffffffffffffffffffffffff1681526020018573ffffffffffffffffffffffffffffffffffffffff1673ffffffffffffffffffffffffffffffffffffffff1681526020018481526020018381526020018281526020019550505050505060405180910390a15050505050505050505050505050565b600060606000606060008673ffffffffffffffffffffffffffffffffffffffff16631a5d4b08876040518263ffffffff167c0100000000000000000000000000000000000000000000000000000000028152600401808273ffffffffffffffffffffffffffffffffffffffff1673ffffffffffffffffffffffffffffffffffffffff168152602001915050600060405180830381600087803b158015611f6d57600080fd5b505af1158015611f81573d6000803e3d6000fd5b505050506040513d6000823e3d601f19601f820116820180604052506040811015611fab57600080fd5b810190808051640100000000811115611fc357600080fd5b82810190506020810184811115611fd957600080fd5b8151856001820283011164010000000082111715611ff657600080fd5b5050929190602001805190602001909291905050509150915085828294509450945050509250925092565b8373ffffffffffffffffffffffffffffffffffffffff1663823e050c8484846040518463ffffffff167c0100000000000000000000000000000000000000000000000000000000028152600401808473ffffffffffffffffffffffffffffffffffffffff1673ffffffffffffffffffffffffffffffffffffffff16815260200180602001838152602001828103825284818151815260200191508051906020019080838360005b838110156120e35780820151818401526020810190506120c8565b50505050905090810190601f1680156121105780820380516001836020036101000a031916815260200191505b50945050505050600060405180830381600087803b15801561213157600080fd5b505af1158015612145573d6000803e3d6000fd5b5050505050505050565b60008173ffffffffffffffffffffffffffffffffffffffff16639c2e5d396040518163ffffffff167c0100000000000000000000000000000000000000000000000000000000028152600401602060405180830381600087803b1580156121b557600080fd5b505af11580156121c9573d6000803e3d6000fd5b505050506040513d60208110156121df57600080fd5b81019080805190602001909291905050509050919050565b8173ffffffffffffffffffffffffffffffffffffffff16636b260f92826040518263ffffffff167c010000000000000000000000000000000000000000000000000000000002815260040180828152602001915050600060405180830381600087803b15801561226657600080fd5b505af115801561227a573d6000803e3d6000fd5b505050505050565b60008173ffffffffffffffffffffffffffffffffffffffff1663dbb242d66040518163ffffffff167c0100000000000000000000000000000000000000000000000000000000028152600401602060405180830381600087803b1580156122e857600080fd5b505af11580156122fc573d6000803e3d6000fd5b505050506040513d602081101561231257600080fd5b81019080805190602001909291905050509050919050565b8173ffffffffffffffffffffffffffffffffffffffff1663bfd9125b826040518263ffffffff167c010000000000000000000000000000000000000000000000000000000002815260040180828152602001915050600060405180830381600087803b15801561239957600080fd5b505af11580156123ad573d6000803e3d6000fd5b505050505050565b600081830190508281101515156123c857fe5b80905092915050565b60008282111515156123df57fe5b818303905092915050565b60008173ffffffffffffffffffffffffffffffffffffffff1663b1b0aad56040518163ffffffff167c0100000000000000000000000000000000000000000000000000000000028152600401602060405180830381600087803b15801561245057600080fd5b505af1158015612464573d6000803e3d6000fd5b505050506040513d602081101561247a57600080fd5b81019080805190602001909291905050509050919050565b8173ffffffffffffffffffffffffffffffffffffffff1663e149684c826040518263ffffffff167c010000000000000000000000000000000000000000000000000000000002815260040180828152602001915050600060405180830381600087803b15801561250157600080fd5b505af1158015612515573d6000803e3d6000fd5b505050505050565b60008060008473ffffffffffffffffffffffffffffffffffffffff16630fb77c5e856040518263ffffffff167c0100000000000000000000000000000000000000000000000000000000028152600401808273ffffffffffffffffffffffffffffffffffffffff1673ffffffffffffffffffffffffffffffffffffffff168152602001915050602060405180830381600087803b1580156125bd57600080fd5b505af11580156125d1573d6000803e3d6000fd5b505050506040513d60208110156125e757600080fd5b81019080805190602001909291905050509050838192509250509250929050565b6000806000806060600061261a612841565b61265b600160009054906101000a900473ffffffffffffffffffffffffffffffffffffffff1673ffffffffffffffffffffffffffffffffffffffff16612282565b955061269e600160009054906101000a900473ffffffffffffffffffffffffffffffffffffffff1673ffffffffffffffffffffffffffffffffffffffff166123ea565b94506126eb89600160009054906101000a900473ffffffffffffffffffffffffffffffffffffffff1673ffffffffffffffffffffffffffffffffffffffff16611ec890919063ffffffff16565b9350935093506060604051908101604052808573ffffffffffffffffffffffffffffffffffffffff168152602001848152602001838152509050858810156127365760009650612775565b6000612761896127538885604001516123d190919063ffffffff16565b6123d190919063ffffffff16565b10156127705760009650612775565b600196505b50505050505092915050565b8273ffffffffffffffffffffffffffffffffffffffff166343eba42583836040518363ffffffff167c0100000000000000000000000000000000000000000000000000000000028152600401808373ffffffffffffffffffffffffffffffffffffffff1673ffffffffffffffffffffffffffffffffffffffff16815260200182815260200192505050600060405180830381600087803b15801561282457600080fd5b505af1158015612838573d6000803e3d6000fd5b50505050505050565b606060405190810160405280600073ffffffffffffffffffffffffffffffffffffffff16815260200160608152602001600081525090565b6040805190810160405280600073ffffffffffffffffffffffffffffffffffffffff1681526020016000815250905600a165627a7a7230582070aecf538ebfc07e19ee527601e28e78e5dc59aa38f81683f990468f1f873e7f0029",
  "source": "pragma solidity ^0.4.23;\n\nimport \"./SafeMath.sol\";\nimport \"./Owned.sol\";\nimport \"./HeimdallLogic.sol\";\n\n\ncontract Heimdall is Owned{\n\n    using SafeMath for uint256; // no overflows\n    using HeimdallLogic for address;\n\n    address public heimdallStorage; // separate storage for upgradability\n\n    /// storage return structs\n    struct user {\n        address ethAdrs;\n        string  toplAdrs;\n        uint256 balance;\n    }\n\n    struct inProgressWithdrawal {\n        address ethAdrs;\n        uint256 amount;\n    }\n\n    /// constructor\n    constructor(address _heimdallStorage) public payable {\n        heimdallStorage = _heimdallStorage;\n    }\n\n        /// has to be run after the constructor because the storage contract\n        /// has to be given the address of this contract as it's master to\n        /// accept any calls\n        /// OPEN TO OTHER IDEAS\n    bool runThisOnce = true;\n    function ownerSetup(string _toplAdrs) onlyOwner public {\n        if (runThisOnce) {\n            heimdallStorage.editUsers(owner, _toplAdrs, 0);\n            runThisOnce = false;\n        }\n    }\n\n    /// core functionality\n    function deposit(string memory _toplAdrs) public payable {\n        /// load storage\n        (address account_p1, string memory account_p2, uint256 account_p3) = heimdallStorage.loadUsers_keyValue(msg.sender);\n        user memory account = user(account_p1, account_p2, account_p3);\n        (address owner_p1, string memory owner_p2, uint256 owner_p3) = heimdallStorage.loadUsers_keyValue(owner);\n        user memory ownerAccount = user(owner_p1, owner_p2, owner_p3);\n        uint256 depositFee = heimdallStorage.loadDepositFee();\n\n        /// function logic\n        if (sha3(account.toplAdrs) != sha3(_toplAdrs)) { // update topl address if new\n            account.toplAdrs = _toplAdrs;\n        }\n        assert(account.balance.add(msg.value).sub(depositFee) > 0); // shouldn't ever throw due to safe math...\n        ownerAccount.balance = ownerAccount.balance.add(depositFee);\n        account.balance = account.balance.add(msg.value).sub(depositFee);\n\n        /// edit storage\n        heimdallStorage.editUsers(ownerAccount.ethAdrs, ownerAccount.toplAdrs, ownerAccount.balance);\n        heimdallStorage.editUsers(account.ethAdrs, account.toplAdrs, account.balance);\n\n        /// events\n        emit deposit_event(owner, msg.sender, msg.value, account.balance, depositFee, account.toplAdrs);\n    }\n\n    function startWithdrawal(uint256 _amount) public {\n        /// load storage\n        (address wd_p1, uint256 wd_p2) = heimdallStorage.loadInProgress_keyValue(msg.sender);\n        inProgressWithdrawal memory wd = inProgressWithdrawal(wd_p1, wd_p2);\n        uint256 withdrawalFee = heimdallStorage.loadWithdrawalFee();\n        (address account_p1, string memory account_p2, uint256 account_p3) = heimdallStorage.loadUsers_keyValue(msg.sender);\n        user memory account = user(account_p1, account_p2, account_p3);\n\n        /// function logic\n        assert(validWithdrawal(wd.ethAdrs, wd.amount));\n        assert(wd.amount == 0);\n        wd.amount = _amount;\n        uint256 endingValue = account.balance.sub(_amount).sub(withdrawalFee);\n\n        /// edit storage\n        heimdallStorage.editInProgress(wd.ethAdrs, wd.amount);\n\n        /// events\n        emit startedWithdrawal_event(msg.sender, _amount, endingValue, withdrawalFee);\n    }\n\n    function approveWithdrawal(address _ethAdrs, uint256 _amount) onlyOwner public {\n        /// load storage\n        (address wd_p1, uint256 wd_p2) = heimdallStorage.loadInProgress_keyValue(_ethAdrs);\n        inProgressWithdrawal memory wd = inProgressWithdrawal(wd_p1, wd_p2);\n        (address account_p1, string memory account_p2, uint256 account_p3) = heimdallStorage.loadUsers_keyValue(_ethAdrs);\n        user memory account = user(account_p1, account_p2, account_p3);\n        (address owner_p1, string memory owner_p2, uint256 owner_p3) = heimdallStorage.loadUsers_keyValue(owner);\n        user memory ownerAccount = user(owner_p1, owner_p2, owner_p3);\n        uint256 withdrawalFee = heimdallStorage.loadWithdrawalFee();\n\n        /// function logic\n        assert(wd.ethAdrs == _ethAdrs && wd.amount == _amount);\n        validWithdrawal(wd.ethAdrs, wd.amount);\n        wd.amount = 0;\n        ownerAccount.balance = ownerAccount.balance.add(withdrawalFee);\n        account.balance = account.balance.sub(_amount).sub(withdrawalFee);\n\n        /// edit storage\n        heimdallStorage.editUsers(ownerAccount.ethAdrs, ownerAccount.toplAdrs, ownerAccount.balance);\n        heimdallStorage.editUsers(account.ethAdrs, account.toplAdrs, account.balance);\n        heimdallStorage.editInProgress(wd.ethAdrs, wd.amount);\n\n        /// function logic (has to be after edit storage to prevent re-entrant behavior)\n        _ethAdrs.transfer(_amount);\n\n        /// events\n        emit approvedWithdrawal_event(msg.sender, _ethAdrs, _amount, account.balance, withdrawalFee);\n    }\n\n    function denyWithdrawal(address _ethAdrs, uint256 _amount) onlyOwner public {\n        /// load storage\n        (address wd_p1, uint256 wd_p2) = heimdallStorage.loadInProgress_keyValue(_ethAdrs);\n        inProgressWithdrawal memory wd = inProgressWithdrawal(wd_p1, wd_p2);\n\n        /// function logic\n        assert(wd.ethAdrs == _ethAdrs && wd.amount == _amount);\n        wd.amount = 0;\n\n        /// edit storage\n        heimdallStorage.editInProgress(wd.ethAdrs, wd.amount);\n\n        /// events\n        emit deniedWithdrawal_event(msg.sender, _ethAdrs, _amount);\n    }\n\n    /// helper functions\n    function validWithdrawal(address _adrs, uint256 _amount) internal view returns (bool validity) {\n        /// load storage\n        uint256 minWithdrawalAmount = heimdallStorage.loadMinWithdrawalAmount();\n        uint256 withdrawalFee = heimdallStorage.loadWithdrawalFee();\n        (address account_p1, string memory account_p2, uint256 account_p3) = heimdallStorage.loadUsers_keyValue(_adrs);\n        user memory account = user(account_p1, account_p2, account_p3);\n\n        if (_amount < minWithdrawalAmount) { // min withdrawal check\n            return false;\n        }\n\n        if (account.balance.sub(withdrawalFee).sub(_amount) < 0) { // debt check\n            return false;\n        }\n\n        return true;\n    }\n\n    function changeToplAddress(string memory _toplAdrs) public {\n        /// load storage\n        (address p1, string memory p2, uint256 p3) = heimdallStorage.loadUsers_keyValue(msg.sender);\n        user memory account = user(p1, p2, p3);\n\n        /// edit storage\n        heimdallStorage.editUsers(account.ethAdrs, _toplAdrs, account.balance);\n\n        /// events\n        emit changedToplAddress_event(account.ethAdrs, account.balance, p2, account.toplAdrs);\n    }\n\n    function changeEthAddress(address _newEthAdrs) public {\n        /// load storage\n        (address p1, string memory p2, uint256 p3) = heimdallStorage.loadUsers_keyValue(msg.sender);\n        user memory account = user(p1, p2, p3);\n        user memory newAccount = user(_newEthAdrs, p2, p3);\n\n        /// edit storage\n        heimdallStorage.editUsers(account.ethAdrs, \"previously used\", 0);\n        heimdallStorage.editUsers(newAccount.ethAdrs, newAccount.toplAdrs, newAccount.balance);\n\n        /// events\n        emit changedEthAddress_event(p2, p3, p1, _newEthAdrs);\n    }\n\n    /// owner control functions\n    function setDepositFee(uint256 _fee) onlyOwner public {\n        uint256 oldFee = heimdallStorage.loadDepositFee();\n        heimdallStorage.editDepositFee(_fee);\n        emit minWithdrawalAmountSet_event(msg.sender, oldFee, _fee);\n    }\n\n    function setWithdrawalFee(uint256 _fee) onlyOwner public {\n        uint256 oldFee = heimdallStorage.loadWithdrawalFee();\n        heimdallStorage.editWithdrawalFee(_fee);\n        emit minWithdrawalAmountSet_event(msg.sender, oldFee, _fee);\n    }\n\n    function setMinWithdrawalAmount(uint256 _amount) onlyOwner public {\n        uint256 oldAmount = heimdallStorage.loadMinWithdrawalAmount();\n        heimdallStorage.editMinWithdrawalAmount(_amount);\n        emit minWithdrawalAmountSet_event(msg.sender, oldAmount, _amount);\n    }\n\n    /// events\n    event deposit_event(address owneraddress, address depositer, uint256 depositValue, uint256 endingValue, uint256 depositFeePaid, string toplAdrs);\n    event startedWithdrawal_event(address withdrawer, uint256 withdrawalAmount, uint256 endingValue, uint withdrawalFee);\n    event approvedWithdrawal_event(address owneraddress, address withdrawer, uint256 withdrawalAmount, uint256 endingValue, uint256 withdrawalFeePaid);\n    event deniedWithdrawal_event(address owneraddress, address withdrawer, uint256 withdrawalAmount);\n    event depositFeeSet_event(address owneraddress, uint256 oldFee, uint256 newFee);\n    event withdrawalFeeSet_event(address owneraddress, uint256 oldFee, uint256 newFee);\n    event minWithdrawalAmountSet_event(address owneraddress, uint256 oldAmount, uint256 newAmount);\n    event changedToplAddress_event(address ethAdrs, uint256 balance, string oldToplAdrs, string newToplAdrs);\n    event changedEthAddress_event(string toplAdrs, uint256 balance, address oldEthAdrs, address newEthAdrs);\n}\n",
  "sourcePath": "/Users/yamirtainwala/Desktop/HeimdallManager/contracts/Heimdall.sol",
  "compiler": {
    "name": "solc",
    "version": "0.4.24+commit.e67f0147.Emscripten.clang"
  },
  "schemaVersion": "2.0.0",
  "updatedAt": "2018-06-18T17:05:58.308Z"
}