{
  "contractName": "Heimdall",
  "abi": [
    {
      "constant": true,
      "inputs": [],
      "name": "depositFee",
      "outputs": [
        {
          "name": "",
          "type": "uint256"
        }
      ],
      "payable": false,
      "stateMutability": "view",
      "type": "function"
    },
    {
      "constant": true,
      "inputs": [
        {
          "name": "",
          "type": "address"
        }
      ],
      "name": "withdrawals",
      "outputs": [
        {
          "name": "",
          "type": "uint256"
        }
      ],
      "payable": false,
      "stateMutability": "view",
      "type": "function"
    },
    {
      "constant": true,
      "inputs": [],
      "name": "withdrawalFee",
      "outputs": [
        {
          "name": "",
          "type": "uint256"
        }
      ],
      "payable": false,
      "stateMutability": "view",
      "type": "function"
    },
    {
      "constant": true,
      "inputs": [],
      "name": "owner",
      "outputs": [
        {
          "name": "",
          "type": "address"
        }
      ],
      "payable": false,
      "stateMutability": "view",
      "type": "function"
    },
    {
      "constant": true,
      "inputs": [],
      "name": "contractOpen",
      "outputs": [
        {
          "name": "",
          "type": "bool"
        }
      ],
      "payable": false,
      "stateMutability": "view",
      "type": "function"
    },
    {
      "constant": true,
      "inputs": [],
      "name": "ownerBalance",
      "outputs": [
        {
          "name": "",
          "type": "uint256"
        }
      ],
      "payable": false,
      "stateMutability": "view",
      "type": "function"
    },
    {
      "inputs": [],
      "payable": false,
      "stateMutability": "nonpayable",
      "type": "constructor"
    },
    {
      "anonymous": false,
      "inputs": [
        {
          "indexed": false,
          "name": "",
          "type": "address"
        },
        {
          "indexed": false,
          "name": "",
          "type": "address"
        },
        {
          "indexed": false,
          "name": "",
          "type": "uint256"
        },
        {
          "indexed": false,
          "name": "",
          "type": "uint256"
        },
        {
          "indexed": false,
          "name": "",
          "type": "uint256"
        }
      ],
      "name": "DepositEvent",
      "type": "event"
    },
    {
      "anonymous": false,
      "inputs": [
        {
          "indexed": false,
          "name": "",
          "type": "address"
        },
        {
          "indexed": false,
          "name": "",
          "type": "address"
        },
        {
          "indexed": false,
          "name": "",
          "type": "uint256"
        },
        {
          "indexed": false,
          "name": "",
          "type": "uint256"
        }
      ],
      "name": "StartWithdrawalEvent",
      "type": "event"
    },
    {
      "anonymous": false,
      "inputs": [
        {
          "indexed": false,
          "name": "",
          "type": "address"
        },
        {
          "indexed": false,
          "name": "",
          "type": "address"
        },
        {
          "indexed": false,
          "name": "",
          "type": "uint256"
        },
        {
          "indexed": false,
          "name": "",
          "type": "uint256"
        }
      ],
      "name": "ApproveWithdrawalEvent",
      "type": "event"
    },
    {
      "anonymous": false,
      "inputs": [
        {
          "indexed": false,
          "name": "",
          "type": "address"
        },
        {
          "indexed": false,
          "name": "",
          "type": "address"
        },
        {
          "indexed": false,
          "name": "",
          "type": "uint256"
        },
        {
          "indexed": false,
          "name": "",
          "type": "uint256"
        }
      ],
      "name": "DenyWithdrawalEvent",
      "type": "event"
    },
    {
      "anonymous": false,
      "inputs": [
        {
          "indexed": false,
          "name": "",
          "type": "address"
        },
        {
          "indexed": false,
          "name": "",
          "type": "uint256"
        },
        {
          "indexed": false,
          "name": "",
          "type": "uint256"
        }
      ],
      "name": "SetDepositFeeEvent",
      "type": "event"
    },
    {
      "anonymous": false,
      "inputs": [
        {
          "indexed": false,
          "name": "ownerAddress",
          "type": "address"
        },
        {
          "indexed": false,
          "name": "oldFee",
          "type": "uint256"
        },
        {
          "indexed": false,
          "name": "newFee",
          "type": "uint256"
        }
      ],
      "name": "SetWithdrawalFeeEvent",
      "type": "event"
    },
    {
      "anonymous": false,
      "inputs": [
        {
          "indexed": false,
          "name": "ownerAddress",
          "type": "address"
        },
        {
          "indexed": false,
          "name": "withdrawalAmount",
          "type": "uint256"
        }
      ],
      "name": "OwnerWithdrawalEvent",
      "type": "event"
    },
    {
      "anonymous": false,
      "inputs": [
        {
          "indexed": false,
          "name": "",
          "type": "address"
        },
        {
          "indexed": false,
          "name": "",
          "type": "bool"
        },
        {
          "indexed": false,
          "name": "",
          "type": "bool"
        }
      ],
      "name": "ToggleContractOpenEvent",
      "type": "event"
    },
    {
      "constant": false,
      "inputs": [
        {
          "name": "_toplAdrs",
          "type": "uint256"
        }
      ],
      "name": "deposit",
      "outputs": [],
      "payable": true,
      "stateMutability": "payable",
      "type": "function"
    },
    {
      "constant": false,
      "inputs": [
        {
          "name": "_amount",
          "type": "uint256"
        }
      ],
      "name": "startWithdrawal",
      "outputs": [],
      "payable": false,
      "stateMutability": "nonpayable",
      "type": "function"
    },
    {
      "constant": false,
      "inputs": [
        {
          "name": "_ethAdrs",
          "type": "address"
        },
        {
          "name": "_amount",
          "type": "uint256"
        },
        {
          "name": "_withdrawalFee",
          "type": "uint256"
        }
      ],
      "name": "approveWithdrawal",
      "outputs": [],
      "payable": false,
      "stateMutability": "nonpayable",
      "type": "function"
    },
    {
      "constant": false,
      "inputs": [
        {
          "name": "_ethAdrs",
          "type": "address"
        },
        {
          "name": "_amount",
          "type": "uint256"
        },
        {
          "name": "_withdrawalFee",
          "type": "uint256"
        }
      ],
      "name": "denyWithdrawal",
      "outputs": [],
      "payable": false,
      "stateMutability": "nonpayable",
      "type": "function"
    },
    {
      "constant": false,
      "inputs": [
        {
          "name": "_fee",
          "type": "uint256"
        }
      ],
      "name": "setDepositFee",
      "outputs": [],
      "payable": false,
      "stateMutability": "nonpayable",
      "type": "function"
    },
    {
      "constant": false,
      "inputs": [
        {
          "name": "_fee",
          "type": "uint256"
        }
      ],
      "name": "setWithdrawalFee",
      "outputs": [],
      "payable": false,
      "stateMutability": "nonpayable",
      "type": "function"
    },
    {
      "constant": false,
      "inputs": [],
      "name": "ownerWithdrawal",
      "outputs": [],
      "payable": false,
      "stateMutability": "nonpayable",
      "type": "function"
    },
    {
      "constant": false,
      "inputs": [],
      "name": "toggleContractOpen",
      "outputs": [],
      "payable": false,
      "stateMutability": "nonpayable",
      "type": "function"
    }
  ],
  "bytecode": "0x60806040526000600255600060035560006004556000600560006101000a81548160ff02191690831515021790555034801561003a57600080fd5b5033600160006101000a81548173ffffffffffffffffffffffffffffffffffffffff021916908373ffffffffffffffffffffffffffffffffffffffff160217905550610e268061008b6000396000f3006080604052600436106100d0576000357c0100000000000000000000000000000000000000000000000000000000900463ffffffff1680630c0b39c2146100d5578063490ae210146100ec57806350919dcd1461011957806367a52793146101705780637a9262a21461019b5780638bc7e8c4146101f25780638da5cb5b1461021d5780638f3acf5314610274578063ac1e5025146102a3578063b6b55f25146102d0578063bedcf003146102f0578063e69bb20d1461031b578063f27a044714610348578063fce67a071461035f575b600080fd5b3480156100e157600080fd5b506100ea6103b6565b005b3480156100f857600080fd5b506101176004803603810190808035906020019092919050505061043e565b005b34801561012557600080fd5b5061016e600480360381019080803573ffffffffffffffffffffffffffffffffffffffff169060200190929190803590602001909291908035906020019092919050505061053b565b005b34801561017c57600080fd5b506101856106a9565b6040518082815260200191505060405180910390f35b3480156101a757600080fd5b506101dc600480360381019080803573ffffffffffffffffffffffffffffffffffffffff1690602001909291905050506106af565b6040518082815260200191505060405180910390f35b3480156101fe57600080fd5b506102076106c7565b6040518082815260200191505060405180910390f35b34801561022957600080fd5b506102326106cd565b604051808273ffffffffffffffffffffffffffffffffffffffff1673ffffffffffffffffffffffffffffffffffffffff16815260200191505060405180910390f35b34801561028057600080fd5b506102896106f3565b604051808215151515815260200191505060405180910390f35b3480156102af57600080fd5b506102ce60048036038101908080359060200190929190505050610706565b005b6102ee60048036038101908080359060200190929190505050610803565b005b3480156102fc57600080fd5b50610305610931565b6040518082815260200191505060405180910390f35b34801561032757600080fd5b5061034660048036038101908080359060200190929190505050610937565b005b34801561035457600080fd5b5061035d610a83565b005b34801561036b57600080fd5b506103b4600480360381019080803573ffffffffffffffffffffffffffffffffffffffff1690602001909291908035906020019092919080359060200190929190505050610be3565b005b600160009054906101000a900473ffffffffffffffffffffffffffffffffffffffff1673ffffffffffffffffffffffffffffffffffffffff163373ffffffffffffffffffffffffffffffffffffffff1614151561041257600080fd5b600560009054906101000a900460ff1615600560006101000a81548160ff021916908315150217905550565b600160009054906101000a900473ffffffffffffffffffffffffffffffffffffffff1673ffffffffffffffffffffffffffffffffffffffff163373ffffffffffffffffffffffffffffffffffffffff1614151561049a57600080fd5b7ff81d6d2f9fa5221af16540ce703574d3e86152ba3dd47657a979db628f1e9a3e600160009054906101000a900473ffffffffffffffffffffffffffffffffffffffff1660035483604051808473ffffffffffffffffffffffffffffffffffffffff1673ffffffffffffffffffffffffffffffffffffffff168152602001838152602001828152602001935050505060405180910390a18060038190555050565b600160009054906101000a900473ffffffffffffffffffffffffffffffffffffffff1673ffffffffffffffffffffffffffffffffffffffff163373ffffffffffffffffffffffffffffffffffffffff1614151561059757600080fd5b60008060008573ffffffffffffffffffffffffffffffffffffffff1673ffffffffffffffffffffffffffffffffffffffff168152602001908152602001600020819055507f9af42d387ca6c09e4e843180ec371e98075c8ae5c9208fdda6a7ccff5d6cb6ca600160009054906101000a900473ffffffffffffffffffffffffffffffffffffffff16848484604051808573ffffffffffffffffffffffffffffffffffffffff1673ffffffffffffffffffffffffffffffffffffffff1681526020018473ffffffffffffffffffffffffffffffffffffffff1673ffffffffffffffffffffffffffffffffffffffff16815260200183815260200182815260200194505050505060405180910390a1505050565b60035481565b60006020528060005260406000206000915090505481565b60045481565b600160009054906101000a900473ffffffffffffffffffffffffffffffffffffffff1681565b600560009054906101000a900460ff1681565b600160009054906101000a900473ffffffffffffffffffffffffffffffffffffffff1673ffffffffffffffffffffffffffffffffffffffff163373ffffffffffffffffffffffffffffffffffffffff1614151561076257600080fd5b7fd60453dd5ed16ec1d1d1a924b18fd65c059ee7a7240ba379321466ad1a5a38cb600160009054906101000a900473ffffffffffffffffffffffffffffffffffffffff1660045483604051808473ffffffffffffffffffffffffffffffffffffffff1673ffffffffffffffffffffffffffffffffffffffff168152602001838152602001828152602001935050505060405180910390a18060048190555050565b600560009054906101000a900460ff16151561081e57600080fd5b600061083560035434610dc590919063ffffffff16565b11151561083e57fe5b610855600354600254610dde90919063ffffffff16565b6002819055507ff9e6944a20b1cd07f8a1cbb67e59d0db44c9eff947e6b113b0f571c70e6be673600160009054906101000a900473ffffffffffffffffffffffffffffffffffffffff16333460035485604051808673ffffffffffffffffffffffffffffffffffffffff1673ffffffffffffffffffffffffffffffffffffffff1681526020018573ffffffffffffffffffffffffffffffffffffffff1673ffffffffffffffffffffffffffffffffffffffff1681526020018481526020018381526020018281526020019550505050505060405180910390a150565b60025481565b600560009054906101000a900460ff16151561095257600080fd5b600061096960045483610dc590919063ffffffff16565b11151561097257fe5b806000803373ffffffffffffffffffffffffffffffffffffffff1673ffffffffffffffffffffffffffffffffffffffff168152602001908152602001600020819055507f919d5c5cc12469dbdd3825610dcaf1ce91c8cd134f64cba6be0dc93f3d67bbde600160009054906101000a900473ffffffffffffffffffffffffffffffffffffffff163383600454604051808573ffffffffffffffffffffffffffffffffffffffff1673ffffffffffffffffffffffffffffffffffffffff1681526020018473ffffffffffffffffffffffffffffffffffffffff1673ffffffffffffffffffffffffffffffffffffffff16815260200183815260200182815260200194505050505060405180910390a150565b600160009054906101000a900473ffffffffffffffffffffffffffffffffffffffff1673ffffffffffffffffffffffffffffffffffffffff163373ffffffffffffffffffffffffffffffffffffffff16141515610adf57600080fd5b7f3f68c3852d586860ba84153b4d39633a5745175253709027eae46b6baace56c0600160009054906101000a900473ffffffffffffffffffffffffffffffffffffffff16600254604051808373ffffffffffffffffffffffffffffffffffffffff1673ffffffffffffffffffffffffffffffffffffffff1681526020018281526020019250505060405180910390a16000600281905550600160009054906101000a900473ffffffffffffffffffffffffffffffffffffffff1673ffffffffffffffffffffffffffffffffffffffff166108fc6002549081150290604051600060405180830381858888f19350505050158015610be0573d6000803e3d6000fd5b50565b600160009054906101000a900473ffffffffffffffffffffffffffffffffffffffff1673ffffffffffffffffffffffffffffffffffffffff163373ffffffffffffffffffffffffffffffffffffffff16141515610c3f57600080fd5b60008060008573ffffffffffffffffffffffffffffffffffffffff1673ffffffffffffffffffffffffffffffffffffffff16815260200190815260200160002081905550610c9881600254610dde90919063ffffffff16565b6002819055508273ffffffffffffffffffffffffffffffffffffffff166108fc610ccb8385610dc590919063ffffffff16565b9081150290604051600060405180830381858888f19350505050158015610cf6573d6000803e3d6000fd5b507f42b7593209aa0a32faa9a726c42c229e45400843767a189c157995517c22379a600160009054906101000a900473ffffffffffffffffffffffffffffffffffffffff16848484604051808573ffffffffffffffffffffffffffffffffffffffff1673ffffffffffffffffffffffffffffffffffffffff1681526020018473ffffffffffffffffffffffffffffffffffffffff1673ffffffffffffffffffffffffffffffffffffffff16815260200183815260200182815260200194505050505060405180910390a1505050565b6000828211151515610dd357fe5b818303905092915050565b60008183019050828110151515610df157fe5b809050929150505600a165627a7a7230582014402ef9d6fd0cc534389f334b8585cc1f49a543154f09dcbe24b47be033664d0029",
  "source": "pragma solidity 0.4.24;\n\n\nimport \"./SafeMath.sol\";\n\n\ncontract Heimdall {\n\n    using SafeMath for uint256; // no overflows\n\n    mapping(address=>uint256) public withdrawals;\n    address public owner;\n    uint256 public ownerBalance = 0;\n    uint256 public depositFee = 0;\n    uint256 public withdrawalFee = 0;\n    bool public contractOpen = false;\n\n    constructor() public {\n        owner = msg.sender;\n    }\n\n    modifier onlyOwner() {\n        require(msg.sender == owner);\n        _;\n    }\n\n    modifier reqOpen() {\n        require(contractOpen);\n        _;\n    }\n\n    function deposit(uint256 _toplAdrs) public payable reqOpen {\n        assert(msg.value.sub(depositFee) > 0); // no debt\n        ownerBalance = ownerBalance.add(depositFee);\n        emit DepositEvent(owner, msg.sender, msg.value, depositFee, _toplAdrs);\n    }\n\n    function startWithdrawal(uint256 _amount) public reqOpen {\n        assert(_amount.sub(withdrawalFee) > 0); // no debt\n        withdrawals[msg.sender] = _amount;\n        emit StartWithdrawalEvent(owner, msg.sender, _amount, withdrawalFee);\n    }\n\n    function approveWithdrawal(\n        address _ethAdrs,\n        uint256 _amount,\n        uint256 _withdrawalFee\n    ) public onlyOwner {\n        withdrawals[_ethAdrs] = 0;\n        ownerBalance = ownerBalance.add(_withdrawalFee);\n        _ethAdrs.transfer(_amount.sub(_withdrawalFee));\n        emit ApproveWithdrawalEvent(owner, _ethAdrs, _amount, _withdrawalFee);\n    }\n\n    function denyWithdrawal(address _ethAdrs, uint256 _amount, uint256 _withdrawalFee) public onlyOwner {\n        withdrawals[_ethAdrs] = 0;\n        emit DenyWithdrawalEvent(owner, _ethAdrs, _amount, _withdrawalFee);\n    }\n\n    function setDepositFee(uint256 _fee) public onlyOwner {\n        emit SetDepositFeeEvent(owner, depositFee, _fee);\n        depositFee = _fee;\n    }\n\n    function setWithdrawalFee(uint256 _fee) public onlyOwner {\n        emit SetWithdrawalFeeEvent(owner, withdrawalFee, _fee);\n        withdrawalFee = _fee;\n    }\n\n    function ownerWithdrawal() public onlyOwner {\n        emit OwnerWithdrawalEvent(owner, ownerBalance);\n        ownerBalance = 0;\n        owner.transfer(ownerBalance);\n    }\n\n    function toggleContractOpen() public onlyOwner {\n        contractOpen = !contractOpen;\n    }\n\n    event DepositEvent(\n        address,\n        address,\n        uint256,\n        uint256,\n        uint256);\n\n    event StartWithdrawalEvent(\n        address,\n        address,\n        uint256,\n        uint256);\n\n    event ApproveWithdrawalEvent(\n        address,\n        address,\n        uint256,\n        uint256);\n\n    event DenyWithdrawalEvent(\n        address,\n        address,\n        uint256,\n        uint256);\n\n    event SetDepositFeeEvent(address, uint256, uint256);\n    event SetWithdrawalFeeEvent(address ownerAddress, uint256 oldFee, uint256 newFee);\n    event OwnerWithdrawalEvent(address ownerAddress, uint256 withdrawalAmount);\n    event ToggleContractOpenEvent(address, bool, bool);\n}\n",
  "sourcePath": "/Volumes/LaCie/Topl/Heimdallr/Ether/deployment/contracts/Heimdall.sol",
  "compiler": {
    "name": "solc",
    "version": "0.4.24+commit.e67f0147.Emscripten.clang"
  },
  "schemaVersion": "2.0.0",
  "updatedAt": "2018-07-25T22:32:26.721Z"
}